:03000000020929C9
:0C092900787FE4F6D8FD75810B020970A0
:060BAC0001080001090030
:030003000209B53A
:1009B500C0E0C0F0C083C082C0D075D000C000C008
:1009C50001C002C003C004C005C006C007750914F4
:1009D500050875A000C280C281C283C290C292C2BE
:1009E50093C295C296C2B0C2B1C2B4C291C294C2FA
:1009F50097C2B3120B5BD291D294D297D2B3150999
:100A0500E509D3940050E4D007D006D005D004D032
:100A150003D002D001D000D0D0D082D083D0F0D086
:020A2500E032BD
:100A2700C284C2B7C2B6C2B5C280C281C283C28500
:100A3700120BA330B50A120AD2EF24FF92B580F346
:100A470030B60A120A6EEF24FF92B680E630B70A74
:100A5700120AFEEF24FF92B780D93084D6120AA07B
:070A6700EF24FF928480CC14
:090BA300D288D2A8D2AF020AD216
:100AD200120B437D017F41120800120B437D027FFE
:100AE20041120800120B2AE4F50A30B50C120B3041
:0B0AF200050AE50AC3940240F17F00F2
:010AFD0022D6
:100A6E00120B437D017F43120800120B437D027F60
:100A7E0043120800D280D281C283120B30E4F50AF1
:100A8E0030B60C120B30050AE50AC3940240F17F12
:010A9E000057
:010A9F002234
:100AFE00120B437D017F42120800120B437D027FD1
:100B0E0042120800120B2AE4F50A30B70C120B3011
:0B0B1E00050AE50AC3940240F17F00C5
:010B290022A9
:100AA000120B437D017F44120800120B437D027F2D
:100AB00044120800D280D281C283120B30E4F50ABE
:100AC00030840C120B30050AE50AC3940240F17F12
:010AD0000025
:010AD1002202
:10080000EF64416008EF64426003020894ED1460F5
:100810002314603814604E24037063D290C291C2D6
:1008200092D293C294C295C296C297D2B0C2B1C2BC
:10083000B3D2B422D290D291C292D293D294C29522
:10084000C296D297C2B0C2B1D2B3C2B4C290C29162
:10085000D292C293C294D295D296C297C2B0D2B16C
:10086000C2B3C2B422C290D291C292C293D294C2F5
:1008700095C296D297C2B0C2B1D2B3C2B422C290CE
:10088000C291C292C296C297C2B0D291D297C2917F
:10089000C29780F6EF64436008EF64446003020986
:1008A00028ED14602314603814604E24037063D262
:1008B000B1C2B3C2B4D296C297C2B0C290C291D2F2
:1008C00092C293C294D29522D2B1D2B3C2B4D2967C
:1008D000D297C2B0C290D291C292C293D294C29522
:1008E000C2B1C2B3D2B4C296C297D2B0D290C291B2
:1008F000C292D293C294C29522C2B1D2B3C2B4C240
:1009000096D297C2B0C290D291C292C293D294C2F0
:100910009522C2B1C2B3C292C296C297C2B0D2B33C
:09092000D297C2B3C29780F622FF
:060B2A00C280C281D283EB
:100B3000E4F50B850BA0120B5B050BE50BC39431A1
:020B400040F182
:010B42002290
:100B430053890F438901758CFC758A66C28DD28CDB
:080B5300308DFDC28CC28D2221
:100B5B0053890F438901758CFF758AA4C28DD28C82
:080B6B00308DFDC28CC28D2209
:100B730053890F438901758CFF758AD2C28DD28C3C
:080B8300308DFDC28CC28D22F1
:100B8B0053890F438901758CFF758AFFC28DD28CF7
:080B9B00308DFDC28CC28D22D9
:10093500020A27E493A3F8E493A34003F68001F2A7
:1009450008DFF48029E493A3F85407240CC8C333C3
:10095500C4540F4420C8834004F456800146F6DF92
:10096500E4800B0102040810204080900BACE47E6B
:10097500019360BCA3FF543F30E509541FFEE49387
:10098500A360010ECF54C025E060A840B8E493A34E
:10099500FAE493A3F8E493A3C8C582C8CAC583CA79
:1009A500F0A3C8C582C8CAC583CADFE9DEE780BE31
:010BB2000042
:00000001FF
